:020000040800F2
:10000000800B002071020008AD020008AF0200085A
:10001000B1020008B3020008B502000800000000A9
:10002000000000000000000000000000B70200080F
:10003000B902000800000000BB020008BD02000871
:10004000BF020008BF020008BF020008BF0200088C
:10005000BF020008BF020008BF020008BF0200087C
:10006000BF020008BF020008BF020008BF0200086C
:10007000BF020008BF020008BF020008BF0200085C
:10008000BF020008BF020008BF020008BF0200084C
:10009000BF020008BF020008BF020008BF0200083C
:1000A000BF020008BF020008BF020008BF0200082C
:1000B000BF02000825080008BF020008BF020008B0
:1000C000BF020008BF020008BF020008BF0200080C
:1000D000BF020008BF020008BF020008BF020008FC
:1000E000BF020008BF020008BF020008BF020008EC
:1000F000BF020008BF020008BF020008BF020008DC
:10010000BF020008BF020008BF020008BF020008CB
:10011000BF020008BF020008BF020008BF020008BB
:10012000BF020008BF020008BF020008BF020008AB
:10013000BF020008BF020008BF020008BF0200089B
:10014000BF020008BF020008BF020008BF0200088B
:10015000BF020008BF020008BF020008BF0200087B
:10016000BF020008BF020008BF020008BF0200086B
:10017000BF020008BF020008BF0200080000000024
:10018000BF020008BF02000800F002F800F061F8AA
:100190000AA090E8000C82448344AAF10107DA45E2
:1001A00001D100F056F8AFF2090EBAE80F0013F0D3
:1001B000010F18BFFB1A43F001031847401300005A
:1001C000601300000A444FF0000C10F8013B13F0DC
:1001D000070408BF10F8014B1D1108BF10F8015BA0
:1001E000641E05D010F8016B641E01F8016BF9D193
:1001F00013F0080F1EBF10F8014BAD1C0C1B09D1EA
:100200006D1E58BF01F801CBFAD505E014F8016B5B
:1002100001F8016B6D1EF9D59142D6D370470000ED
:100220000023002400250026103A28BF78C1FBD8FF
:10023000520728BF30C148BF0B607047642900F0E7
:10024000A180002070471FB501F052F91FBD10B505
:1002500010BD00F06CF91146FFF7F5FF00F078FDD6
:1002600000F08AF903B4FFF7F2FF03BC00F092F943
:1002700016481749174B99423CBF50F8042B41F8D8
:10028000042BF8D314494FF000028B4238BF43F8D7
:10029000042BFAD3DFF84400016841F470010160D7
:1002A000BFF34F8FBFF36F8F0D480047FEE7FEE7A8
:1002B000FEE7FEE7FEE7FEE7FEE7FEE7FEE7FEE716
:1002C00008480949094A0A4B704700001C150008F4
:1002D0000000002098010020800B002088ED00E045
:1002E0008901000880050020800B00208007002085
:1002F000800700200FB41CB5074B06AA7B44694653
:100300000090059800F0FBF80020694600F00AF91B
:100310001CBC5DF814FB0000250200002DE9F04133
:100320000E460446002020622046E168884730B32C
:10033000252805D0D4E901219047206A401CF2E726
:10034000E168204600278847050018D0A5F1410044
:10035000192802D820354FF4006732462946204636
:100360002760FFF76BFF40B1012804D0F61D26F08F
:1003700007060836D8E7361DD6E72846DAE7206AAA
:10038000BDE8F0812DE9F04106460024106875298A
:10039000314616A510D0AFF30080002802DA4042A3
:1003A00013A507E031688A0701D512A502E04907C5
:1003B00004D511A5012401E0AFF3008000210A2239
:1003C00006F1240709E0B0FBF2FCB0FBF2F302FBFC
:1003D0001C00303078541846491C0028F3D12346BD
:1003E0002A463046BDE8F04100F02AB8000000007F
:1003F0002D0000002B0000002000000010B5431C61
:1004000002E010F8011B71B18107FAD14FF00132FF
:1004100002C88C1A8C4314EAC211F9D0C01A0A0619
:1004200003D0C01E10BDC01A10BD0A0401D0801E2A
:1004300010BD0902FCD0401E10BD704770477047C8
:100440002DE9F0470D4699469246044600F12408EE
:100450000168880604D5E06921F01001216000E000
:100460000120A84201DD471B00E00027A1697A199D
:1004700002EB0900081AA0612078C00602D42046C9
:10048000AFF30080002608E0D4E901211AF8060045
:100490009047206A401C761C20624E45F4DB207891
:1004A000C0060AD52046AFF3008006E0D4E901215A
:1004B00030209047206A401C2062381EA7F10107B7
:1004C000F4DC07E0D4E9012118F805009047206A20
:1004D000401C2062281EA5F10105F3DC2046AFF385
:1004E00000802078000602D50220BDE8F0870120B8
:1004F000FBE7000001694A1C02610878704700B5FB
:100500008FB0CDE901310021059105497944CDE94C
:10051000031011466846FFF701FF0FB000BD000051
:10052000E5FFFFFF0A6802F8010B0A607047754695
:1005300000F02CF8AE4605006946534620F007004F
:10054000854618B020B5FFF7BBFEBDE820404FF050
:1005500000064FF000074FF000084FF0000B21F0AD
:100560000701AC46ACE8C009ACE8C009ACE8C0097A
:10057000ACE8C0098D46704710B50446AFF3008063
:100580002046BDE81040FFF76DBE000000487047F0
:100590001C05002001491820ABBEFEE72600020022
:1005A0007047000070B53348FFF728FF0446224625
:1005B0003049314800F00EFA57E03048FFF71EFF8F
:1005C00005462A462D492C4800F004FA00F05AFA54
:1005D00004460D2C48D12A48FFF710FF05462A464D
:1005E0002749254800F0F6F92648008810B3264828
:1005F0000088F8B100202349088023490880A0071B
:10060000006900F0020018B1A007406B1F490860A4
:100610004FF08040006900F0020020B14FF08040B0
:10062000406B1B4908601848008816490988401A21
:100630001849086017480068B0F5967F08D9154832
:100640000068B0F57A7F03D20120134908600BE0FF
:100650000020114908601148FFF7D0FE05462A46E0
:100660000E49054800F0B6F900BF0B4800680028A5
:10067000A3D070BD2C000020004400405600002094
:1006800085000020060000200800002090010020C6
:10069000940100200C000020100000200A0100201E
:1006A0005E49096821F007015C4A1160114609683A
:1006B00041F0020111605A49096841F48071584AB9
:1006C000116000BF5649096801F480610029F9D022
:1006D00010205349496821F0F851514A51601146A0
:1006E000496841EA006151601146096821F0807152
:1006F000116000BF4A49096801F00071B1F1007F43
:10070000F8D04749C96821F00301454AD160114634
:10071000C96841F00201D1601146C96821F4FE4167
:1007200041F4A051D1601146C96821F0700141F037
:100730001001D1601146C96821F0C061D160114635
:10074000C96841F08071D1601146096841F080713B
:10075000116000BF3249096801F000710029F9D029
:100760002F49896821F003012D4A9160114689685B
:1007700041F00301916000BF2949896801F00C0133
:100780000C29F9D12649896821F0F001244A9160A9
:100790001146896821F4E06191601146896821F46D
:1007A000605191601146096821F08061116000BFBD
:1007B0001B49096801F08061B1F1806FF8D01849D8
:1007C000096921F4FE41164A11611146096941F493
:1007D000C05111611146096941F40031116111469E
:1007E000096941F4803111611146096841F0806165
:1007F000116000BF0A49096801F080610029F9D041
:1008000007498831096821F44001054AC2F8881077
:100810001146096E41F40011116670470020024034
:100820000010024005480068401C04490860044864
:10083000006820F001000249086070478C01002028
:10084000100400401A48C06C40F008001849C86401
:100850001848006820F4705016490860084600687F
:1008600040F42050086013482030006840F0EE60EB
:100870001049203108600F480830006840F470507B
:100880000C4908310860081D006820F47050091DEB
:1008900008600846006840F4A05008600548001D44
:1008A000006820F060000349091D086070470000DF
:1008B00000100240000C004800B50D48806D40F467
:1008C00000300B4988650A488830006820F00C0029
:1008D000C1F888000846D0F8880040F00400C1F84C
:1008E0008800FFF7AFFF034800F010F800BD0000DC
:1008F0000010024000440040642242430723B2FB40
:10090000F3F100BF4A1E111EFCD17047016821F0AF
:1009100001010160016821F010210160016821F4EA
:1009200000410160416821F44051416042F28D0173
:10093000C160016841F00C0101601E4988421BD171
:10094000016841F020010160016821F0400101606F
:10095000016821F010010160016821F0800101604F
:10096000016821F480710160016821F0400101609B
:10097000016821F0010101600F49884209D1016A33
:1009800041F0400101620D49096841F0C0010B4A84
:100990001160016841F00101016000BFC16901F40B
:1009A00000110029FAD000BFC16901F480010029BB
:1009B000FAD07047004C0040004400400838014025
:1009C000014600BFC86900F020000028FAD0888CDA
:1009D000C0B27047F0B504460E46174600250CE03D
:1009E00000BFE06900F080000028FAD0705D20852B
:1009F0004FF49670FFF780FF6D1CBD42F0D300BF2F
:100A0000E06900F040000028FAD0E06920F04000E2
:100A1000E061F0BD70B5044600200F49086016E0A3
:100A20000E480D49096850F821200DA11348FFF721
:100A300061FC1248FFF7E2FC05462A460F491048C0
:100A4000FFF7C8FF04480068401C034908600248DB
:100A50000068A042E4D370BD0000002028030020FD
:100A600044697374616E6365206D65617375726549
:100A70006420203D202564200D0A0000B8040020D9
:100A80000044004000B50248FFF79AFF00BD000097
:100A9000004400400D48C06C40F001000B49C864A0
:100AA0004FF09040006820F003004FF09041086044
:100AB0000846006840F0020008600846006A20F01E
:100AC000F00008620846006A0862704700100240A1
:100AD0001748C06C40F002001549C864154800680A
:100AE00020F44050134908600846006840F4005064
:100AF000086010482030006820F080500D492031F7
:100B000008600846006840F0007008600948001D51
:100B1000006820F040000749091D086005480C30B6
:100B2000006820F4405003490C3108607047000011
:100B300000100240000400481648806D40F001009B
:100B4000144988654F20890488620846406940F04E
:100B5000010048610846006A20F00100086208466A
:100B6000806940F0010088610846006A40F00A0090
:100B700008620846806920F00C0088610846006A17
:100B800040F0010008620846006840F0010008607B
:100B900070470000001002403648806D40F00400AD
:100BA000344988653448006820F0100032490860F4
:100BB00031482030006820F001002F4920310860C2
:100BC0004F202D49283108602B48183000682B49E8
:100BD00008402949183108600846006840F0600064
:100BE00008602548006840F08000234908602248DA
:100BF0001430006840F001001F4914310860081DDE
:100C0000006820F00300091D0860084600681B49C1
:100C100008401949183108600846006840F0600033
:100C2000086015482030006820F008001249203183
:100C300008600846006820F0020008600E4818307E
:100C4000006840F008000C49183108600A4820305C
:100C5000006840F001000849203108600120064981
:100C6000343108600448006840F00100024908601F
:100C70007047000000100240000800408FFFFEFF98
:100C80002B48806D40F002002949886500202949E1
:100C900008605020091D086026482838006840F088
:100CA000040024492839086022481C38006840F0B4
:100CB000010020491C3908601E481438006840F0C3
:100CC00001001C49143908601D20002809DB00F0D0
:100CD0001F02012191404209920002F1E022C2F874
:100CE000001100BF13480838006840F0080011499F
:100CF000083908600846006840F0020008600D48A6
:100D00001038006820F00C000A49103908600948C2
:100D10000838006840F001000649083908600548B5
:100D20002838006840F001000249283908607047FF
:100D30000010024028040040002004E00021034A83
:100D400042F82010401C6428F8DB7047280300207C
:100D50002DED068BFFF7A4FCFFF7AEFDFFF79AFE23
:100D6000FFF7B6FEFFF718FFFFF7E6FEFFF788FF75
:100D700000BF00BFF3E0FFF715FC794800880028AA
:100D80002ED07848008858B376490988744A12886A
:100D9000881A00F098FA41EC1A0B9FED730B53EC94
:100DA000102B00F0A7FA41EC190B9FED710B53ECDF
:100DB000102B00F003F941EC180B00F057FA6E49C4
:100DC000086008466DA102687548FFF793FA7448F9
:100DD000FFF714FB05462A4671497248FFF7FAFDF2
:100DE000FFF7AAFF0024AFE06E481C30006800F057
:100DF000200018B101206C490860ABE04FF0804042
:100E0000006900F0020020B14FF08040406B67495C
:100E100008604FF08040006900F0020020B14FF000
:100E20008040406B624908604E4909884C4A1288EC
:100E3000881A00F048FA41EC1A0B9FED4B0B53EC6B
:100E4000102B00F057FA41EC190B9FED490B53ECB6
:100E5000102B00F0B3F841EC180B00F007FA5549DD
:100E60000860641C08460068322804D908460068F7
:100E7000B0F57A7F43D339E000204E490860384905
:100E80000880384908804FF08040006900F0020077
:100E900020B14FF08040406B444908604FF08040E3
:100EA000006900F0020020B14FF08040406B4049E3
:100EB00008602C4909882A4A1288881A00F003FA27
:100EC00041EC1A0B9FED280B53EC102B00F012FA9B
:100ED00041EC190B9FED260B53EC102B00F06EF834
:100EE00041EC180B00F0C2F9324908603148006843
:100EF000322804D92F480068B0F57A7FBCD319494D
:100F00000988174A1288881A00F0DDF941EC1A0B9B
:100F10009FED150B53EC102B00F0ECF941EC190B85
:100F20009FED130B53EC102B00F048F841EC180B1D
:100F300000F09CF9204941F824000020084908806D
:100F4000084908801B4908601748006810B9652CDB
:100F5000FFF44AAF00BF2046FFF75CFD00BF0AE781
:100F60000600002008000020C1CAA145B6F3D53F05
:100F70000000000000000040140000204469737469
:100F8000616E6365206D6561737572656420696E5D
:100F9000206D6D2069732020203D2025640D0A00FE
:100FA000C4020020004400401800002090010020EE
:100FB000940100201C000020280300202DE9C041DE
:100FC00030B4DFF8A0C23CEA111418BF3CEA131495
:100FD00000F0EC8081EA03051CEA111444EAD574A0
:100FE00018BF1CEA131500F0C780A4EB05044FF0EE
:100FF000004545EAC12145EAC32341EA505143EA8D
:10100000525304F17F74994204F500344FEAC02032
:101010004FEAC22208BF904200F09C804FEA13655D
:101020000FF24016765D4FEA134506FB05F7C7F150
:10103000807706FB07F74FEAD737A7FB03687642AE
:10104000C8F58038A7FB06CE38BFA8F1010807FB1A
:1010500008E64FF0000EA6FB028CE6FB03CEDCF1A7
:10106000000CCEF1004E38BFAEF1010EA6FB0C58BD
:101070004FF000074FF00005E6FB0E87A1FB08C606
:10108000A0FB07CE16EB0E0645F10005E1FB076558
:1010900015F1E04E7EBFA4F580345FEA46066D414F
:1010A00016F1800745F100054FEA17274FEA06665B
:1010B00047EA0567A6F1DE46B6F1805F4FEA1525DF
:1010C0001FD9384624F0010C05EBC471BCF1FE6F4A
:1010D00001EB0C1102D8F0BCBDE8008124425CBFDA
:1010E00001F5801E9EEAC47F02D4F0BCBDE80081F9
:1010F000244238D4F0BCA1F1C041BDE8004100F069
:10110000F1B94FEAD22242EA43524FEAD323A7FB76
:1011100002864FEAD02040EA415007FB03661EEAF0
:101120000E0F4FEAD12105FB026658BFA6EB005611
:10113000B6EB00564FEA520E4EEAC37E18EB0E0E87
:1011400056EB530EBDD518EB02085E417F1C55F1DE
:101150000005B6E74FF480154FF000074FF000068A
:101160004FF00008ADE7F0BC4FF0000001F1C041C6
:1011700001F00041BDE8008111EA0C1F0CEA1315D3
:1011800000D00CE013EA0C1F00F025804FF00000A7
:10119000F0BC81EA030101F00041BDE80081F0BC30
:1011A000BDE8004181EA030100F09CB9F0BCBDE854
:1011B000004170B500F048F9097EFC3E00F007B828
:1011C00081EA03014FF0000001F00041704781EA1D
:1011D000030100F087B9F0BCBDE800414FF000000A
:1011E00021497047FFFDFBF9F7F5F4F2F0EEEDEB66
:1011F000E9E8E6E4E3E1E0DEDDDBDAD8D7D5D4D315
:10120000D1D0CFCDCCCBCAC8C7C6C5C4C2C1C0BF60
:10121000BEBDBCBBBAB9B8B7B6B5B4B3B2B1B0AF66
:10122000AEADACABAAA9A8A8A7A6A5A4A3A3A2A14A
:10123000A09F9F9E9D9C9C9B9A9999989797969505
:1012400095949393929191908F8F8E8E8D8C8C8BA1
:101250008B8A898988888787868585848483838229
:10126000828181800000FF070000F87F4FEA115360
:10127000A3F58063D3F11E03A8BFD3F1200C08DBD4
:101280004FF0004242EAC12252EA505232FA03F0D1
:10129000704709420BD4102BC4BF0020704703F5E0
:1012A000787CBCF1FF3F05D04FF0FF3070474FF026
:1012B0000000704770B500F0C7F800BF4992248065
:1012C00000207047F0E710F0004248BF4042B0FAFB
:1012D00080F310FA03F10AD0C3F11D0303F5806314
:1012E0004FEA415002EB035202EBD12170474FF01D
:1012F00000007047DFF848C170B51CEA111E1EBF20
:101300001CEA13159EEA0C0F95EA0C0F00F06F8093
:1013100081EA030423EA4C134EEAD47E21EA4C11FD
:1013200041F4801143F48013AE44A1FB024CA0FBB6
:101330000365AEF17F7E361955EB0C05A1FB034C1E
:101340004CF10003A0FB021C16EB0C06654153F1A7
:101350000003094218BF46F0010613F4007F0BD1C9
:101360004FEA03314FEA0530340341EA155140EAB0
:1013700016506FF003020AE04FEAC3214FEAC5207E
:10138000F40241EA555140EA56506FF0020202EB76
:101390002E4201EB025585EACE710AD05FEA440C79
:1013A00018BF24F0004450F1000041F1000120EA90
:1013B000D47040F2FE7C624500D270BDA84214BFDA
:1013C0004FF080444FF04044002E08BF0024BEF18F
:1013D000806FA8BFA1F1C041BDE8704080F282805B
:1013E0004FF0000001F1C04101F0004170479EEA5A
:1013F0000C0F0CEA131518BF95EA0C0F06D04FF02E
:10140000000081EA030E0EF0004170BD00F01CF8F0
:101410008900013E00F007B800F009B84FEA430C1C
:101420005FEA5C5C08D081EA030100F05BB84FEA38
:10143000410C5FEA5C5CF6D14FF000000149704757
:101440000000FF070000F87F0EF1020E2EF0030EE1
:101450005EF8046B364205D4012A43EB030515F50B
:10146000001F12D8012841EB010C1CF5001F0CD8FD
:101470000ED14FEAD17C15F5001F0CEB4C0C0CF192
:10148000020C08BF4CEBD37C04E04FF0080C01E0E9
:101490004FEAD37C0CEB4C0526FA05F606F007065E
:1014A000B6F1040C06D20EEB860CBDE870404CF091
:1014B000010C6047DFE80CF0090B02024FF000411D
:1014C0004FF00000A1F5002170BD1946104601281B
:1014D00051EB010418BFD4F5001484BF002001F0C3
:1014E000004170BD0808A0F500114FEA31017047B6
:1014F0004FF04070E1EE100A704700001C15000824
:101500000000002098010000C4010008F015000848
:1015100098010020E809000020020008012C102A90
:10152000207374617274696E6720504F53542E2E6D
:101530002E20506C6163652061206C6172676520AC
:101540006F626A656374200A0D3818507265737390
:1015500020656E746572206B657920666F722067F6
:1015600065743C59261B64694E1A6E3E192F280B70
:10157000596F7520686176652070384B65643A193B
:1015800060280870726F6365656437780C746F202B
:1015900063616C63756C61746A7944130D0A3C77FE
:1015A00061695F296B380D746865206563686F2019
:1015B00074696D611A4C542F6973206F6E200E2D63
:1015C00046616C6C2B1B6564B5191716666F756EDA
:1015D0006459542E6E6F742070D72A647E467065ED
:1015E000726C792F696E206972713E01660000008D
:040000050800018965
:00000001FF
